{
	"contracts/1_Storage.sol": {
		"Lelicoin_ico": {
			"abi": [
				{
					"inputs": [
						{
							"internalType": "address",
							"name": "investor",
							"type": "address"
						},
						{
							"internalType": "uint256",
							"name": "usd_invested",
							"type": "uint256"
						}
					],
					"name": "buy_lelicoin",
					"outputs": [],
					"stateMutability": "nonpayable",
					"type": "function"
				},
				{
					"inputs": [
						{
							"internalType": "address",
							"name": "investor",
							"type": "address"
						}
					],
					"name": "equity_in_lelicoin",
					"outputs": [
						{
							"internalType": "uint256",
							"name": "",
							"type": "uint256"
						}
					],
					"stateMutability": "nonpayable",
					"type": "function"
				},
				{
					"inputs": [
						{
							"internalType": "address",
							"name": "investor",
							"type": "address"
						}
					],
					"name": "equity_in_usd",
					"outputs": [
						{
							"internalType": "uint256",
							"name": "",
							"type": "uint256"
						}
					],
					"stateMutability": "nonpayable",
					"type": "function"
				},
				{
					"inputs": [],
					"name": "max_lelicoin",
					"outputs": [
						{
							"internalType": "uint256",
							"name": "",
							"type": "uint256"
						}
					],
					"stateMutability": "view",
					"type": "function"
				},
				{
					"inputs": [
						{
							"internalType": "address",
							"name": "investor",
							"type": "address"
						},
						{
							"internalType": "uint256",
							"name": "lelicoin_sold",
							"type": "uint256"
						}
					],
					"name": "sell_lelicoin",
					"outputs": [],
					"stateMutability": "nonpayable",
					"type": "function"
				},
				{
					"inputs": [],
					"name": "total_lelicoin_bought",
					"outputs": [
						{
							"internalType": "uint256",
							"name": "",
							"type": "uint256"
						}
					],
					"stateMutability": "view",
					"type": "function"
				},
				{
					"inputs": [],
					"name": "usd_to_lelicoin",
					"outputs": [
						{
							"internalType": "uint256",
							"name": "",
							"type": "uint256"
						}
					],
					"stateMutability": "view",
					"type": "function"
				}
			],
			"devdoc": {
				"kind": "dev",
				"methods": {},
				"version": 1
			},
			"evm": {
				"assembly": "    /* \"contracts/1_Storage.sol\":33:1616  contract Lelicoin_ico {... */\n  mstore(0x40, 0x80)\n    /* \"contracts/1_Storage.sol\":89:98  100000000 */\n  0x05f5e100\n    /* \"contracts/1_Storage.sol\":62:98  uint public max_lelicoin = 100000000 */\n  0x00\n  sstore\n    /* \"contracts/1_Storage.sol\":135:138  100 */\n  0x64\n    /* \"contracts/1_Storage.sol\":105:138  uint public usd_to_lelicoin = 100 */\n  0x01\n  sstore\n    /* \"contracts/1_Storage.sol\":181:182  0 */\n  0x00\n    /* \"contracts/1_Storage.sol\":145:182  uint public total_lelicoin_bought = 0 */\n  0x02\n  sstore\n    /* \"contracts/1_Storage.sol\":33:1616  contract Lelicoin_ico {... */\n  callvalue\n  dup1\n  iszero\n  tag_1\n  jumpi\n  0x00\n  dup1\n  revert\ntag_1:\n  pop\n  dataSize(sub_0)\n  dup1\n  dataOffset(sub_0)\n  0x00\n  codecopy\n  0x00\n  return\nstop\n\nsub_0: assembly {\n        /* \"contracts/1_Storage.sol\":33:1616  contract Lelicoin_ico {... */\n      mstore(0x40, 0x80)\n      callvalue\n      dup1\n      iszero\n      tag_1\n      jumpi\n      0x00\n      dup1\n      revert\n    tag_1:\n      pop\n      jumpi(tag_2, lt(calldatasize, 0x04))\n      shr(0xe0, calldataload(0x00))\n      dup1\n      0x3cf8944b\n      gt\n      tag_10\n      jumpi\n      dup1\n      0x3cf8944b\n      eq\n      tag_6\n      jumpi\n      dup1\n      0xd4f33784\n      eq\n      tag_7\n      jumpi\n      dup1\n      0xea6c04d5\n      eq\n      tag_8\n      jumpi\n      dup1\n      0xf4fa0a3d\n      eq\n      tag_9\n      jumpi\n      jump(tag_2)\n    tag_10:\n      dup1\n      0x0ac9e401\n      eq\n      tag_3\n      jumpi\n      dup1\n      0x10c51c1b\n      eq\n      tag_4\n      jumpi\n      dup1\n      0x2456fe23\n      eq\n      tag_5\n      jumpi\n    tag_2:\n      0x00\n      dup1\n      revert\n        /* \"contracts/1_Storage.sol\":680:1020  function buy_lelicoin(address investor, uint usd_invested) external... */\n    tag_3:\n      tag_11\n      0x04\n      dup1\n      calldatasize\n      sub\n      dup2\n      add\n      swap1\n      tag_12\n      swap2\n      swap1\n      tag_13\n      jump\t// in\n    tag_12:\n      tag_14\n      jump\t// in\n    tag_11:\n      stop\n        /* \"contracts/1_Storage.sol\":562:673  function equity_in_usd(address investor) external returns(uint){... */\n    tag_4:\n      tag_15\n      0x04\n      dup1\n      calldatasize\n      sub\n      dup2\n      add\n      swap1\n      tag_16\n      swap2\n      swap1\n      tag_17\n      jump\t// in\n    tag_16:\n      tag_18\n      jump\t// in\n    tag_15:\n      mload(0x40)\n      tag_19\n      swap2\n      swap1\n      tag_20\n      jump\t// in\n    tag_19:\n      mload(0x40)\n      dup1\n      swap2\n      sub\n      swap1\n      return\n        /* \"contracts/1_Storage.sol\":438:555  function equity_in_lelicoin(address investor) external returns(uint){... */\n    tag_5:\n      tag_21\n      0x04\n      dup1\n      calldatasize\n      sub\n      dup2\n      add\n      swap1\n      tag_22\n      swap2\n      swap1\n      tag_17\n      jump\t// in\n    tag_22:\n      tag_23\n      jump\t// in\n    tag_21:\n      mload(0x40)\n      tag_24\n      swap2\n      swap1\n      tag_20\n      jump\t// in\n    tag_24:\n      mload(0x40)\n      dup1\n      swap2\n      sub\n      swap1\n      return\n        /* \"contracts/1_Storage.sol\":105:138  uint public usd_to_lelicoin = 100 */\n    tag_6:\n      tag_25\n      tag_26\n      jump\t// in\n    tag_25:\n      mload(0x40)\n      tag_27\n      swap2\n      swap1\n      tag_20\n      jump\t// in\n    tag_27:\n      mload(0x40)\n      dup1\n      swap2\n      sub\n      swap1\n      return\n        /* \"contracts/1_Storage.sol\":1026:1267  function sell_lelicoin(address investor, uint lelicoin_sold) external {... */\n    tag_7:\n      tag_28\n      0x04\n      dup1\n      calldatasize\n      sub\n      dup2\n      add\n      swap1\n      tag_29\n      swap2\n      swap1\n      tag_13\n      jump\t// in\n    tag_29:\n      tag_30\n      jump\t// in\n    tag_28:\n      stop\n        /* \"contracts/1_Storage.sol\":145:182  uint public total_lelicoin_bought = 0 */\n    tag_8:\n      tag_31\n      tag_32\n      jump\t// in\n    tag_31:\n      mload(0x40)\n      tag_33\n      swap2\n      swap1\n      tag_20\n      jump\t// in\n    tag_33:\n      mload(0x40)\n      dup1\n      swap2\n      sub\n      swap1\n      return\n        /* \"contracts/1_Storage.sol\":62:98  uint public max_lelicoin = 100000000 */\n    tag_9:\n      tag_34\n      tag_35\n      jump\t// in\n    tag_34:\n      mload(0x40)\n      tag_36\n      swap2\n      swap1\n      tag_20\n      jump\t// in\n    tag_36:\n      mload(0x40)\n      dup1\n      swap2\n      sub\n      swap1\n      return\n        /* \"contracts/1_Storage.sol\":680:1020  function buy_lelicoin(address investor, uint usd_invested) external... */\n    tag_14:\n        /* \"contracts/1_Storage.sol\":769:781  usd_invested */\n      dup1\n        /* \"contracts/1_Storage.sol\":401:413  max_lelicoin */\n      sload(0x00)\n        /* \"contracts/1_Storage.sol\":376:397  total_lelicoin_bought */\n      sload(0x02)\n        /* \"contracts/1_Storage.sol\":358:373  usd_to_lelicoin */\n      sload(0x01)\n        /* \"contracts/1_Storage.sol\":343:355  usd_invested */\n      dup4\n        /* \"contracts/1_Storage.sol\":343:373  usd_invested * usd_to_lelicoin */\n      tag_38\n      swap2\n      swap1\n      tag_39\n      jump\t// in\n    tag_38:\n        /* \"contracts/1_Storage.sol\":343:397  usd_invested * usd_to_lelicoin + total_lelicoin_bought */\n      tag_40\n      swap2\n      swap1\n      tag_41\n      jump\t// in\n    tag_40:\n        /* \"contracts/1_Storage.sol\":343:413  usd_invested * usd_to_lelicoin + total_lelicoin_bought <= max_lelicoin */\n      gt\n      iszero\n        /* \"contracts/1_Storage.sol\":334:414  require (usd_invested * usd_to_lelicoin + total_lelicoin_bought <= max_lelicoin) */\n      tag_42\n      jumpi\n      0x00\n      dup1\n      revert\n    tag_42:\n        /* \"contracts/1_Storage.sol\":792:812  uint lelicoin_bought */\n      0x00\n        /* \"contracts/1_Storage.sol\":830:845  usd_to_lelicoin */\n      sload(0x01)\n        /* \"contracts/1_Storage.sol\":815:827  usd_invested */\n      dup4\n        /* \"contracts/1_Storage.sol\":815:845  usd_invested * usd_to_lelicoin */\n      tag_44\n      swap2\n      swap1\n      tag_39\n      jump\t// in\n    tag_44:\n        /* \"contracts/1_Storage.sol\":792:845  uint lelicoin_bought = usd_invested * usd_to_lelicoin */\n      swap1\n      pop\n        /* \"contracts/1_Storage.sol\":884:899  lelicoin_bought */\n      dup1\n        /* \"contracts/1_Storage.sol\":855:870  equity_lelicoin */\n      0x03\n        /* \"contracts/1_Storage.sol\":855:880  equity_lelicoin[investor] */\n      0x00\n        /* \"contracts/1_Storage.sol\":871:879  investor */\n      dup7\n        /* \"contracts/1_Storage.sol\":855:880  equity_lelicoin[investor] */\n      0xffffffffffffffffffffffffffffffffffffffff\n      and\n      0xffffffffffffffffffffffffffffffffffffffff\n      and\n      dup2\n      mstore\n      0x20\n      add\n      swap1\n      dup2\n      mstore\n      0x20\n      add\n      0x00\n      keccak256\n      0x00\n        /* \"contracts/1_Storage.sol\":855:899  equity_lelicoin[investor] += lelicoin_bought */\n      dup3\n      dup3\n      sload\n      tag_45\n      swap2\n      swap1\n      tag_41\n      jump\t// in\n    tag_45:\n      swap3\n      pop\n      pop\n      dup2\n      swap1\n      sstore\n      pop\n        /* \"contracts/1_Storage.sol\":960:963  100 */\n      0x64\n        /* \"contracts/1_Storage.sol\":932:947  equity_lelicoin */\n      0x03\n        /* \"contracts/1_Storage.sol\":932:957  equity_lelicoin[investor] */\n      0x00\n        /* \"contracts/1_Storage.sol\":948:956  investor */\n      dup7\n        /* \"contracts/1_Storage.sol\":932:957  equity_lelicoin[investor] */\n      0xffffffffffffffffffffffffffffffffffffffff\n      and\n      0xffffffffffffffffffffffffffffffffffffffff\n      and\n      dup2\n      mstore\n      0x20\n      add\n      swap1\n      dup2\n      mstore\n      0x20\n      add\n      0x00\n      keccak256\n      sload\n        /* \"contracts/1_Storage.sol\":932:963  equity_lelicoin[investor] / 100 */\n      tag_46\n      swap2\n      swap1\n      tag_47\n      jump\t// in\n    tag_46:\n        /* \"contracts/1_Storage.sol\":909:919  equity_usd */\n      0x04\n        /* \"contracts/1_Storage.sol\":909:929  equity_usd[investor] */\n      0x00\n        /* \"contracts/1_Storage.sol\":920:928  investor */\n      dup7\n        /* \"contracts/1_Storage.sol\":909:929  equity_usd[investor] */\n      0xffffffffffffffffffffffffffffffffffffffff\n      and\n      0xffffffffffffffffffffffffffffffffffffffff\n      and\n      dup2\n      mstore\n      0x20\n      add\n      swap1\n      dup2\n      mstore\n      0x20\n      add\n      0x00\n      keccak256\n        /* \"contracts/1_Storage.sol\":909:963  equity_usd[investor] = equity_lelicoin[investor] / 100 */\n      dup2\n      swap1\n      sstore\n      pop\n        /* \"contracts/1_Storage.sol\":998:1013  lelicoin_bought */\n      dup1\n        /* \"contracts/1_Storage.sol\":973:994  total_lelicoin_bought */\n      0x02\n      0x00\n        /* \"contracts/1_Storage.sol\":973:1013  total_lelicoin_bought += lelicoin_bought */\n      dup3\n      dup3\n      sload\n      tag_48\n      swap2\n      swap1\n      tag_41\n      jump\t// in\n    tag_48:\n      swap3\n      pop\n      pop\n      dup2\n      swap1\n      sstore\n      pop\n        /* \"contracts/1_Storage.sol\":782:1020  {... */\n      pop\n        /* \"contracts/1_Storage.sol\":680:1020  function buy_lelicoin(address investor, uint usd_invested) external... */\n      pop\n      pop\n      pop\n      jump\t// out\n        /* \"contracts/1_Storage.sol\":562:673  function equity_in_usd(address investor) external returns(uint){... */\n    tag_18:\n        /* \"contracts/1_Storage.sol\":620:624  uint */\n      0x00\n        /* \"contracts/1_Storage.sol\":646:656  equity_usd */\n      0x04\n        /* \"contracts/1_Storage.sol\":646:666  equity_usd[investor] */\n      0x00\n        /* \"contracts/1_Storage.sol\":657:665  investor */\n      dup4\n        /* \"contracts/1_Storage.sol\":646:666  equity_usd[investor] */\n      0xffffffffffffffffffffffffffffffffffffffff\n      and\n      0xffffffffffffffffffffffffffffffffffffffff\n      and\n      dup2\n      mstore\n      0x20\n      add\n      swap1\n      dup2\n      mstore\n      0x20\n      add\n      0x00\n      keccak256\n      sload\n        /* \"contracts/1_Storage.sol\":639:666  return equity_usd[investor] */\n      swap1\n      pop\n        /* \"contracts/1_Storage.sol\":562:673  function equity_in_usd(address investor) external returns(uint){... */\n      swap2\n      swap1\n      pop\n      jump\t// out\n        /* \"contracts/1_Storage.sol\":438:555  function equity_in_lelicoin(address investor) external returns(uint){... */\n    tag_23:\n        /* \"contracts/1_Storage.sol\":501:505  uint */\n      0x00\n        /* \"contracts/1_Storage.sol\":523:538  equity_lelicoin */\n      0x03\n        /* \"contracts/1_Storage.sol\":523:548  equity_lelicoin[investor] */\n      0x00\n        /* \"contracts/1_Storage.sol\":539:547  investor */\n      dup4\n        /* \"contracts/1_Storage.sol\":523:548  equity_lelicoin[investor] */\n      0xffffffffffffffffffffffffffffffffffffffff\n      and\n      0xffffffffffffffffffffffffffffffffffffffff\n      and\n      dup2\n      mstore\n      0x20\n      add\n      swap1\n      dup2\n      mstore\n      0x20\n      add\n      0x00\n      keccak256\n      sload\n        /* \"contracts/1_Storage.sol\":516:548  return equity_lelicoin[investor] */\n      swap1\n      pop\n        /* \"contracts/1_Storage.sol\":438:555  function equity_in_lelicoin(address investor) external returns(uint){... */\n      swap2\n      swap1\n      pop\n      jump\t// out\n        /* \"contracts/1_Storage.sol\":105:138  uint public usd_to_lelicoin = 100 */\n    tag_26:\n      sload(0x01)\n      dup2\n      jump\t// out\n        /* \"contracts/1_Storage.sol\":1026:1267  function sell_lelicoin(address investor, uint lelicoin_sold) external {... */\n    tag_30:\n        /* \"contracts/1_Storage.sol\":1135:1148  lelicoin_sold */\n      dup1\n        /* \"contracts/1_Storage.sol\":1106:1121  equity_lelicoin */\n      0x03\n        /* \"contracts/1_Storage.sol\":1106:1131  equity_lelicoin[investor] */\n      0x00\n        /* \"contracts/1_Storage.sol\":1122:1130  investor */\n      dup5\n        /* \"contracts/1_Storage.sol\":1106:1131  equity_lelicoin[investor] */\n      0xffffffffffffffffffffffffffffffffffffffff\n      and\n      0xffffffffffffffffffffffffffffffffffffffff\n      and\n      dup2\n      mstore\n      0x20\n      add\n      swap1\n      dup2\n      mstore\n      0x20\n      add\n      0x00\n      keccak256\n      0x00\n        /* \"contracts/1_Storage.sol\":1106:1148  equity_lelicoin[investor] -= lelicoin_sold */\n      dup3\n      dup3\n      sload\n      tag_52\n      swap2\n      swap1\n      tag_53\n      jump\t// in\n    tag_52:\n      swap3\n      pop\n      pop\n      dup2\n      swap1\n      sstore\n      pop\n        /* \"contracts/1_Storage.sol\":1209:1212  100 */\n      0x64\n        /* \"contracts/1_Storage.sol\":1181:1196  equity_lelicoin */\n      0x03\n        /* \"contracts/1_Storage.sol\":1181:1206  equity_lelicoin[investor] */\n      0x00\n        /* \"contracts/1_Storage.sol\":1197:1205  investor */\n      dup5\n        /* \"contracts/1_Storage.sol\":1181:1206  equity_lelicoin[investor] */\n      0xffffffffffffffffffffffffffffffffffffffff\n      and\n      0xffffffffffffffffffffffffffffffffffffffff\n      and\n      dup2\n      mstore\n      0x20\n      add\n      swap1\n      dup2\n      mstore\n      0x20\n      add\n      0x00\n      keccak256\n      sload\n        /* \"contracts/1_Storage.sol\":1181:1212  equity_lelicoin[investor] / 100 */\n      tag_54\n      swap2\n      swap1\n      tag_47\n      jump\t// in\n    tag_54:\n        /* \"contracts/1_Storage.sol\":1158:1168  equity_usd */\n      0x04\n        /* \"contracts/1_Storage.sol\":1158:1178  equity_usd[investor] */\n      0x00\n        /* \"contracts/1_Storage.sol\":1169:1177  investor */\n      dup5\n        /* \"contracts/1_Storage.sol\":1158:1178  equity_usd[investor] */\n      0xffffffffffffffffffffffffffffffffffffffff\n      and\n      0xffffffffffffffffffffffffffffffffffffffff\n      and\n      dup2\n      mstore\n      0x20\n      add\n      swap1\n      dup2\n      mstore\n      0x20\n      add\n      0x00\n      keccak256\n        /* \"contracts/1_Storage.sol\":1158:1212  equity_usd[investor] = equity_lelicoin[investor] / 100 */\n      dup2\n      swap1\n      sstore\n      pop\n        /* \"contracts/1_Storage.sol\":1247:1260  lelicoin_sold */\n      dup1\n        /* \"contracts/1_Storage.sol\":1222:1243  total_lelicoin_bought */\n      0x02\n      0x00\n        /* \"contracts/1_Storage.sol\":1222:1260  total_lelicoin_bought -= lelicoin_sold */\n      dup3\n      dup3\n      sload\n      tag_55\n      swap2\n      swap1\n      tag_53\n      jump\t// in\n    tag_55:\n      swap3\n      pop\n      pop\n      dup2\n      swap1\n      sstore\n      pop\n        /* \"contracts/1_Storage.sol\":1026:1267  function sell_lelicoin(address investor, uint lelicoin_sold) external {... */\n      pop\n      pop\n      jump\t// out\n        /* \"contracts/1_Storage.sol\":145:182  uint public total_lelicoin_bought = 0 */\n    tag_32:\n      sload(0x02)\n      dup2\n      jump\t// out\n        /* \"contracts/1_Storage.sol\":62:98  uint public max_lelicoin = 100000000 */\n    tag_35:\n      sload(0x00)\n      dup2\n      jump\t// out\n        /* \"#utility.yul\":7:146   */\n    tag_57:\n        /* \"#utility.yul\":53:58   */\n      0x00\n        /* \"#utility.yul\":91:97   */\n      dup2\n        /* \"#utility.yul\":78:98   */\n      calldataload\n        /* \"#utility.yul\":69:98   */\n      swap1\n      pop\n        /* \"#utility.yul\":107:140   */\n      tag_59\n        /* \"#utility.yul\":134:139   */\n      dup2\n        /* \"#utility.yul\":107:140   */\n      tag_60\n      jump\t// in\n    tag_59:\n        /* \"#utility.yul\":7:146   */\n      swap3\n      swap2\n      pop\n      pop\n      jump\t// out\n        /* \"#utility.yul\":152:291   */\n    tag_61:\n        /* \"#utility.yul\":198:203   */\n      0x00\n        /* \"#utility.yul\":236:242   */\n      dup2\n        /* \"#utility.yul\":223:243   */\n      calldataload\n        /* \"#utility.yul\":214:243   */\n      swap1\n      pop\n        /* \"#utility.yul\":252:285   */\n      tag_63\n        /* \"#utility.yul\":279:284   */\n      dup2\n        /* \"#utility.yul\":252:285   */\n      tag_64\n      jump\t// in\n    tag_63:\n        /* \"#utility.yul\":152:291   */\n      swap3\n      swap2\n      pop\n      pop\n      jump\t// out\n        /* \"#utility.yul\":297:626   */\n    tag_17:\n        /* \"#utility.yul\":356:362   */\n      0x00\n        /* \"#utility.yul\":405:407   */\n      0x20\n        /* \"#utility.yul\":393:402   */\n      dup3\n        /* \"#utility.yul\":384:391   */\n      dup5\n        /* \"#utility.yul\":380:403   */\n      sub\n        /* \"#utility.yul\":376:408   */\n      slt\n        /* \"#utility.yul\":373:492   */\n      iszero\n      tag_66\n      jumpi\n        /* \"#utility.yul\":411:490   */\n      tag_67\n      tag_68\n      jump\t// in\n    tag_67:\n        /* \"#utility.yul\":373:492   */\n    tag_66:\n        /* \"#utility.yul\":531:532   */\n      0x00\n        /* \"#utility.yul\":556:609   */\n      tag_69\n        /* \"#utility.yul\":601:608   */\n      dup5\n        /* \"#utility.yul\":592:598   */\n      dup3\n        /* \"#utility.yul\":581:590   */\n      dup6\n        /* \"#utility.yul\":577:599   */\n      add\n        /* \"#utility.yul\":556:609   */\n      tag_57\n      jump\t// in\n    tag_69:\n        /* \"#utility.yul\":546:609   */\n      swap2\n      pop\n        /* \"#utility.yul\":502:619   */\n      pop\n        /* \"#utility.yul\":297:626   */\n      swap3\n      swap2\n      pop\n      pop\n      jump\t// out\n        /* \"#utility.yul\":632:1106   */\n    tag_13:\n        /* \"#utility.yul\":700:706   */\n      0x00\n        /* \"#utility.yul\":708:714   */\n      dup1\n        /* \"#utility.yul\":757:759   */\n      0x40\n        /* \"#utility.yul\":745:754   */\n      dup4\n        /* \"#utility.yul\":736:743   */\n      dup6\n        /* \"#utility.yul\":732:755   */\n      sub\n        /* \"#utility.yul\":728:760   */\n      slt\n        /* \"#utility.yul\":725:844   */\n      iszero\n      tag_71\n      jumpi\n        /* \"#utility.yul\":763:842   */\n      tag_72\n      tag_68\n      jump\t// in\n    tag_72:\n        /* \"#utility.yul\":725:844   */\n    tag_71:\n        /* \"#utility.yul\":883:884   */\n      0x00\n        /* \"#utility.yul\":908:961   */\n      tag_73\n        /* \"#utility.yul\":953:960   */\n      dup6\n        /* \"#utility.yul\":944:950   */\n      dup3\n        /* \"#utility.yul\":933:942   */\n      dup7\n        /* \"#utility.yul\":929:951   */\n      add\n        /* \"#utility.yul\":908:961   */\n      tag_57\n      jump\t// in\n    tag_73:\n        /* \"#utility.yul\":898:961   */\n      swap3\n      pop\n        /* \"#utility.yul\":854:971   */\n      pop\n        /* \"#utility.yul\":1010:1012   */\n      0x20\n        /* \"#utility.yul\":1036:1089   */\n      tag_74\n        /* \"#utility.yul\":1081:1088   */\n      dup6\n        /* \"#utility.yul\":1072:1078   */\n      dup3\n        /* \"#utility.yul\":1061:1070   */\n      dup7\n        /* \"#utility.yul\":1057:1079   */\n      add\n        /* \"#utility.yul\":1036:1089   */\n      tag_61\n      jump\t// in\n    tag_74:\n        /* \"#utility.yul\":1026:1089   */\n      swap2\n      pop\n        /* \"#utility.yul\":981:1099   */\n      pop\n        /* \"#utility.yul\":632:1106   */\n      swap3\n      pop\n      swap3\n      swap1\n      pop\n      jump\t// out\n        /* \"#utility.yul\":1112:1230   */\n    tag_75:\n        /* \"#utility.yul\":1199:1223   */\n      tag_77\n        /* \"#utility.yul\":1217:1222   */\n      dup2\n        /* \"#utility.yul\":1199:1223   */\n      tag_78\n      jump\t// in\n    tag_77:\n        /* \"#utility.yul\":1194:1197   */\n      dup3\n        /* \"#utility.yul\":1187:1224   */\n      mstore\n        /* \"#utility.yul\":1112:1230   */\n      pop\n      pop\n      jump\t// out\n        /* \"#utility.yul\":1236:1458   */\n    tag_20:\n        /* \"#utility.yul\":1329:1333   */\n      0x00\n        /* \"#utility.yul\":1367:1369   */\n      0x20\n        /* \"#utility.yul\":1356:1365   */\n      dup3\n        /* \"#utility.yul\":1352:1370   */\n      add\n        /* \"#utility.yul\":1344:1370   */\n      swap1\n      pop\n        /* \"#utility.yul\":1380:1451   */\n      tag_80\n        /* \"#utility.yul\":1448:1449   */\n      0x00\n        /* \"#utility.yul\":1437:1446   */\n      dup4\n        /* \"#utility.yul\":1433:1450   */\n      add\n        /* \"#utility.yul\":1424:1430   */\n      dup5\n        /* \"#utility.yul\":1380:1451   */\n      tag_75\n      jump\t// in\n    tag_80:\n        /* \"#utility.yul\":1236:1458   */\n      swap3\n      swap2\n      pop\n      pop\n      jump\t// out\n        /* \"#utility.yul\":1545:1850   */\n    tag_41:\n        /* \"#utility.yul\":1585:1588   */\n      0x00\n        /* \"#utility.yul\":1604:1624   */\n      tag_84\n        /* \"#utility.yul\":1622:1623   */\n      dup3\n        /* \"#utility.yul\":1604:1624   */\n      tag_78\n      jump\t// in\n    tag_84:\n        /* \"#utility.yul\":1599:1624   */\n      swap2\n      pop\n        /* \"#utility.yul\":1638:1658   */\n      tag_85\n        /* \"#utility.yul\":1656:1657   */\n      dup4\n        /* \"#utility.yul\":1638:1658   */\n      tag_78\n      jump\t// in\n    tag_85:\n        /* \"#utility.yul\":1633:1658   */\n      swap3\n      pop\n        /* \"#utility.yul\":1792:1793   */\n      dup3\n        /* \"#utility.yul\":1724:1790   */\n      0xffffffffffffffffffffffffffffffffffffffffffffffffffffffffffffffff\n        /* \"#utility.yul\":1720:1794   */\n      sub\n        /* \"#utility.yul\":1717:1718   */\n      dup3\n        /* \"#utility.yul\":1714:1795   */\n      gt\n        /* \"#utility.yul\":1711:1818   */\n      iszero\n      tag_86\n      jumpi\n        /* \"#utility.yul\":1798:1816   */\n      tag_87\n      tag_88\n      jump\t// in\n    tag_87:\n        /* \"#utility.yul\":1711:1818   */\n    tag_86:\n        /* \"#utility.yul\":1842:1843   */\n      dup3\n        /* \"#utility.yul\":1839:1840   */\n      dup3\n        /* \"#utility.yul\":1835:1844   */\n      add\n        /* \"#utility.yul\":1828:1844   */\n      swap1\n      pop\n        /* \"#utility.yul\":1545:1850   */\n      swap3\n      swap2\n      pop\n      pop\n      jump\t// out\n        /* \"#utility.yul\":1856:2041   */\n    tag_47:\n        /* \"#utility.yul\":1896:1897   */\n      0x00\n        /* \"#utility.yul\":1913:1933   */\n      tag_90\n        /* \"#utility.yul\":1931:1932   */\n      dup3\n        /* \"#utility.yul\":1913:1933   */\n      tag_78\n      jump\t// in\n    tag_90:\n        /* \"#utility.yul\":1908:1933   */\n      swap2\n      pop\n        /* \"#utility.yul\":1947:1967   */\n      tag_91\n        /* \"#utility.yul\":1965:1966   */\n      dup4\n        /* \"#utility.yul\":1947:1967   */\n      tag_78\n      jump\t// in\n    tag_91:\n        /* \"#utility.yul\":1942:1967   */\n      swap3\n      pop\n        /* \"#utility.yul\":1986:1987   */\n      dup3\n        /* \"#utility.yul\":1976:2011   */\n      tag_92\n      jumpi\n        /* \"#utility.yul\":1991:2009   */\n      tag_93\n      tag_94\n      jump\t// in\n    tag_93:\n        /* \"#utility.yul\":1976:2011   */\n    tag_92:\n        /* \"#utility.yul\":2033:2034   */\n      dup3\n        /* \"#utility.yul\":2030:2031   */\n      dup3\n        /* \"#utility.yul\":2026:2035   */\n      div\n        /* \"#utility.yul\":2021:2035   */\n      swap1\n      pop\n        /* \"#utility.yul\":1856:2041   */\n      swap3\n      swap2\n      pop\n      pop\n      jump\t// out\n        /* \"#utility.yul\":2047:2395   */\n    tag_39:\n        /* \"#utility.yul\":2087:2094   */\n      0x00\n        /* \"#utility.yul\":2110:2130   */\n      tag_96\n        /* \"#utility.yul\":2128:2129   */\n      dup3\n        /* \"#utility.yul\":2110:2130   */\n      tag_78\n      jump\t// in\n    tag_96:\n        /* \"#utility.yul\":2105:2130   */\n      swap2\n      pop\n        /* \"#utility.yul\":2144:2164   */\n      tag_97\n        /* \"#utility.yul\":2162:2163   */\n      dup4\n        /* \"#utility.yul\":2144:2164   */\n      tag_78\n      jump\t// in\n    tag_97:\n        /* \"#utility.yul\":2139:2164   */\n      swap3\n      pop\n        /* \"#utility.yul\":2332:2333   */\n      dup2\n        /* \"#utility.yul\":2264:2330   */\n      0xffffffffffffffffffffffffffffffffffffffffffffffffffffffffffffffff\n        /* \"#utility.yul\":2260:2334   */\n      div\n        /* \"#utility.yul\":2257:2258   */\n      dup4\n        /* \"#utility.yul\":2254:2335   */\n      gt\n        /* \"#utility.yul\":2249:2250   */\n      dup3\n        /* \"#utility.yul\":2242:2251   */\n      iszero\n        /* \"#utility.yul\":2235:2252   */\n      iszero\n        /* \"#utility.yul\":2231:2336   */\n      and\n        /* \"#utility.yul\":2228:2359   */\n      iszero\n      tag_98\n      jumpi\n        /* \"#utility.yul\":2339:2357   */\n      tag_99\n      tag_88\n      jump\t// in\n    tag_99:\n        /* \"#utility.yul\":2228:2359   */\n    tag_98:\n        /* \"#utility.yul\":2387:2388   */\n      dup3\n        /* \"#utility.yul\":2384:2385   */\n      dup3\n        /* \"#utility.yul\":2380:2389   */\n      mul\n        /* \"#utility.yul\":2369:2389   */\n      swap1\n      pop\n        /* \"#utility.yul\":2047:2395   */\n      swap3\n      swap2\n      pop\n      pop\n      jump\t// out\n        /* \"#utility.yul\":2401:2592   */\n    tag_53:\n        /* \"#utility.yul\":2441:2445   */\n      0x00\n        /* \"#utility.yul\":2461:2481   */\n      tag_101\n        /* \"#utility.yul\":2479:2480   */\n      dup3\n        /* \"#utility.yul\":2461:2481   */\n      tag_78\n      jump\t// in\n    tag_101:\n        /* \"#utility.yul\":2456:2481   */\n      swap2\n      pop\n        /* \"#utility.yul\":2495:2515   */\n      tag_102\n        /* \"#utility.yul\":2513:2514   */\n      dup4\n        /* \"#utility.yul\":2495:2515   */\n      tag_78\n      jump\t// in\n    tag_102:\n        /* \"#utility.yul\":2490:2515   */\n      swap3\n      pop\n        /* \"#utility.yul\":2534:2535   */\n      dup3\n        /* \"#utility.yul\":2531:2532   */\n      dup3\n        /* \"#utility.yul\":2528:2536   */\n      lt\n        /* \"#utility.yul\":2525:2559   */\n      iszero\n      tag_103\n      jumpi\n        /* \"#utility.yul\":2539:2557   */\n      tag_104\n      tag_88\n      jump\t// in\n    tag_104:\n        /* \"#utility.yul\":2525:2559   */\n    tag_103:\n        /* \"#utility.yul\":2584:2585   */\n      dup3\n        /* \"#utility.yul\":2581:2582   */\n      dup3\n        /* \"#utility.yul\":2577:2586   */\n      sub\n        /* \"#utility.yul\":2569:2586   */\n      swap1\n      pop\n        /* \"#utility.yul\":2401:2592   */\n      swap3\n      swap2\n      pop\n      pop\n      jump\t// out\n        /* \"#utility.yul\":2598:2694   */\n    tag_105:\n        /* \"#utility.yul\":2635:2642   */\n      0x00\n        /* \"#utility.yul\":2664:2688   */\n      tag_107\n        /* \"#utility.yul\":2682:2687   */\n      dup3\n        /* \"#utility.yul\":2664:2688   */\n      tag_108\n      jump\t// in\n    tag_107:\n        /* \"#utility.yul\":2653:2688   */\n      swap1\n      pop\n        /* \"#utility.yul\":2598:2694   */\n      swap2\n      swap1\n      pop\n      jump\t// out\n        /* \"#utility.yul\":2700:2826   */\n    tag_108:\n        /* \"#utility.yul\":2737:2744   */\n      0x00\n        /* \"#utility.yul\":2777:2819   */\n      0xffffffffffffffffffffffffffffffffffffffff\n        /* \"#utility.yul\":2770:2775   */\n      dup3\n        /* \"#utility.yul\":2766:2820   */\n      and\n        /* \"#utility.yul\":2755:2820   */\n      swap1\n      pop\n        /* \"#utility.yul\":2700:2826   */\n      swap2\n      swap1\n      pop\n      jump\t// out\n        /* \"#utility.yul\":2832:2909   */\n    tag_78:\n        /* \"#utility.yul\":2869:2876   */\n      0x00\n        /* \"#utility.yul\":2898:2903   */\n      dup2\n        /* \"#utility.yul\":2887:2903   */\n      swap1\n      pop\n        /* \"#utility.yul\":2832:2909   */\n      swap2\n      swap1\n      pop\n      jump\t// out\n        /* \"#utility.yul\":2915:3095   */\n    tag_88:\n        /* \"#utility.yul\":2963:3040   */\n      0x4e487b7100000000000000000000000000000000000000000000000000000000\n        /* \"#utility.yul\":2960:2961   */\n      0x00\n        /* \"#utility.yul\":2953:3041   */\n      mstore\n        /* \"#utility.yul\":3060:3064   */\n      0x11\n        /* \"#utility.yul\":3057:3058   */\n      0x04\n        /* \"#utility.yul\":3050:3065   */\n      mstore\n        /* \"#utility.yul\":3084:3088   */\n      0x24\n        /* \"#utility.yul\":3081:3082   */\n      0x00\n        /* \"#utility.yul\":3074:3089   */\n      revert\n        /* \"#utility.yul\":3101:3281   */\n    tag_94:\n        /* \"#utility.yul\":3149:3226   */\n      0x4e487b7100000000000000000000000000000000000000000000000000000000\n        /* \"#utility.yul\":3146:3147   */\n      0x00\n        /* \"#utility.yul\":3139:3227   */\n      mstore\n        /* \"#utility.yul\":3246:3250   */\n      0x12\n        /* \"#utility.yul\":3243:3244   */\n      0x04\n        /* \"#utility.yul\":3236:3251   */\n      mstore\n        /* \"#utility.yul\":3270:3274   */\n      0x24\n        /* \"#utility.yul\":3267:3268   */\n      0x00\n        /* \"#utility.yul\":3260:3275   */\n      revert\n        /* \"#utility.yul\":3410:3527   */\n    tag_68:\n        /* \"#utility.yul\":3519:3520   */\n      0x00\n        /* \"#utility.yul\":3516:3517   */\n      dup1\n        /* \"#utility.yul\":3509:3521   */\n      revert\n        /* \"#utility.yul\":3533:3655   */\n    tag_60:\n        /* \"#utility.yul\":3606:3630   */\n      tag_117\n        /* \"#utility.yul\":3624:3629   */\n      dup2\n        /* \"#utility.yul\":3606:3630   */\n      tag_105\n      jump\t// in\n    tag_117:\n        /* \"#utility.yul\":3599:3604   */\n      dup2\n        /* \"#utility.yul\":3596:3631   */\n      eq\n        /* \"#utility.yul\":3586:3649   */\n      tag_118\n      jumpi\n        /* \"#utility.yul\":3645:3646   */\n      0x00\n        /* \"#utility.yul\":3642:3643   */\n      dup1\n        /* \"#utility.yul\":3635:3647   */\n      revert\n        /* \"#utility.yul\":3586:3649   */\n    tag_118:\n        /* \"#utility.yul\":3533:3655   */\n      pop\n      jump\t// out\n        /* \"#utility.yul\":3661:3783   */\n    tag_64:\n        /* \"#utility.yul\":3734:3758   */\n      tag_120\n        /* \"#utility.yul\":3752:3757   */\n      dup2\n        /* \"#utility.yul\":3734:3758   */\n      tag_78\n      jump\t// in\n    tag_120:\n        /* \"#utility.yul\":3727:3732   */\n      dup2\n        /* \"#utility.yul\":3724:3759   */\n      eq\n        /* \"#utility.yul\":3714:3777   */\n      tag_121\n      jumpi\n        /* \"#utility.yul\":3773:3774   */\n      0x00\n        /* \"#utility.yul\":3770:3771   */\n      dup1\n        /* \"#utility.yul\":3763:3775   */\n      revert\n        /* \"#utility.yul\":3714:3777   */\n    tag_121:\n        /* \"#utility.yul\":3661:3783   */\n      pop\n      jump\t// out\n\n    auxdata: 0xa26469706673582212206399d676dd2374e3fd187a2424fadc7d6be8850980733642ddab65f58af9266064736f6c63430008070033\n}\n",
				"bytecode": {
					"linkReferences": {},
					"object": "60806040526305f5e1006000556064600155600060025534801561002257600080fd5b50610733806100326000396000f3fe608060405234801561001057600080fd5b506004361061007d5760003560e01c80633cf8944b1161005b5780633cf8944b146100fe578063d4f337841461011c578063ea6c04d514610138578063f4fa0a3d146101565761007d565b80630ac9e4011461008257806310c51c1b1461009e5780632456fe23146100ce575b600080fd5b61009c600480360381019061009791906104b1565b610174565b005b6100b860048036038101906100b39190610484565b6102b4565b6040516100c59190610500565b60405180910390f35b6100e860048036038101906100e39190610484565b6102fd565b6040516100f59190610500565b60405180910390f35b610106610346565b6040516101139190610500565b60405180910390f35b610136600480360381019061013191906104b1565b61034c565b005b61014061044e565b60405161014d9190610500565b60405180910390f35b61015e610454565b60405161016b9190610500565b60405180910390f35b806000546002546001548361018991906105a2565b610193919061051b565b111561019e57600080fd5b6000600154836101ae91906105a2565b905080600360008673ffffffffffffffffffffffffffffffffffffffff1673ffffffffffffffffffffffffffffffffffffffff16815260200190815260200160002060008282546101ff919061051b565b925050819055506064600360008673ffffffffffffffffffffffffffffffffffffffff1673ffffffffffffffffffffffffffffffffffffffff168152602001908152602001600020546102529190610571565b600460008673ffffffffffffffffffffffffffffffffffffffff1673ffffffffffffffffffffffffffffffffffffffff1681526020019081526020016000208190555080600260008282546102a7919061051b565b9250508190555050505050565b6000600460008373ffffffffffffffffffffffffffffffffffffffff1673ffffffffffffffffffffffffffffffffffffffff168152602001908152602001600020549050919050565b6000600360008373ffffffffffffffffffffffffffffffffffffffff1673ffffffffffffffffffffffffffffffffffffffff168152602001908152602001600020549050919050565b60015481565b80600360008473ffffffffffffffffffffffffffffffffffffffff1673ffffffffffffffffffffffffffffffffffffffff168152602001908152602001600020600082825461039b91906105fc565b925050819055506064600360008473ffffffffffffffffffffffffffffffffffffffff1673ffffffffffffffffffffffffffffffffffffffff168152602001908152602001600020546103ee9190610571565b600460008473ffffffffffffffffffffffffffffffffffffffff1673ffffffffffffffffffffffffffffffffffffffff16815260200190815260200160002081905550806002600082825461044391906105fc565b925050819055505050565b60025481565b60005481565b600081359050610469816106cf565b92915050565b60008135905061047e816106e6565b92915050565b60006020828403121561049a576104996106ca565b5b60006104a88482850161045a565b91505092915050565b600080604083850312156104c8576104c76106ca565b5b60006104d68582860161045a565b92505060206104e78582860161046f565b9150509250929050565b6104fa81610662565b82525050565b600060208201905061051560008301846104f1565b92915050565b600061052682610662565b915061053183610662565b9250827fffffffffffffffffffffffffffffffffffffffffffffffffffffffffffffffff038211156105665761056561066c565b5b828201905092915050565b600061057c82610662565b915061058783610662565b9250826105975761059661069b565b5b828204905092915050565b60006105ad82610662565b91506105b883610662565b9250817fffffffffffffffffffffffffffffffffffffffffffffffffffffffffffffffff04831182151516156105f1576105f061066c565b5b828202905092915050565b600061060782610662565b915061061283610662565b9250828210156106255761062461066c565b5b828203905092915050565b600061063b82610642565b9050919050565b600073ffffffffffffffffffffffffffffffffffffffff82169050919050565b6000819050919050565b7f4e487b7100000000000000000000000000000000000000000000000000000000600052601160045260246000fd5b7f4e487b7100000000000000000000000000000000000000000000000000000000600052601260045260246000fd5b600080fd5b6106d881610630565b81146106e357600080fd5b50565b6106ef81610662565b81146106fa57600080fd5b5056fea26469706673582212206399d676dd2374e3fd187a2424fadc7d6be8850980733642ddab65f58af9266064736f6c63430008070033",
					"opcodes": "PUSH1 0x80 PUSH1 0x40 MSTORE PUSH4 0x5F5E100 PUSH1 0x0 SSTORE PUSH1 0x64 PUSH1 0x1 SSTORE PUSH1 0x0 PUSH1 0x2 SSTORE CALLVALUE DUP1 ISZERO PUSH2 0x22 JUMPI PUSH1 0x0 DUP1 REVERT JUMPDEST POP PUSH2 0x733 DUP1 PUSH2 0x32 PUSH1 0x0 CODECOPY PUSH1 0x0 RETURN INVALID PUSH1 0x80 PUSH1 0x40 MSTORE CALLVALUE DUP1 ISZERO PUSH2 0x10 JUMPI PUSH1 0x0 DUP1 REVERT JUMPDEST POP PUSH1 0x4 CALLDATASIZE LT PUSH2 0x7D JUMPI PUSH1 0x0 CALLDATALOAD PUSH1 0xE0 SHR DUP1 PUSH4 0x3CF8944B GT PUSH2 0x5B JUMPI DUP1 PUSH4 0x3CF8944B EQ PUSH2 0xFE JUMPI DUP1 PUSH4 0xD4F33784 EQ PUSH2 0x11C JUMPI DUP1 PUSH4 0xEA6C04D5 EQ PUSH2 0x138 JUMPI DUP1 PUSH4 0xF4FA0A3D EQ PUSH2 0x156 JUMPI PUSH2 0x7D JUMP JUMPDEST DUP1 PUSH4 0xAC9E401 EQ PUSH2 0x82 JUMPI DUP1 PUSH4 0x10C51C1B EQ PUSH2 0x9E JUMPI DUP1 PUSH4 0x2456FE23 EQ PUSH2 0xCE JUMPI JUMPDEST PUSH1 0x0 DUP1 REVERT JUMPDEST PUSH2 0x9C PUSH1 0x4 DUP1 CALLDATASIZE SUB DUP2 ADD SWAP1 PUSH2 0x97 SWAP2 SWAP1 PUSH2 0x4B1 JUMP JUMPDEST PUSH2 0x174 JUMP JUMPDEST STOP JUMPDEST PUSH2 0xB8 PUSH1 0x4 DUP1 CALLDATASIZE SUB DUP2 ADD SWAP1 PUSH2 0xB3 SWAP2 SWAP1 PUSH2 0x484 JUMP JUMPDEST PUSH2 0x2B4 JUMP JUMPDEST PUSH1 0x40 MLOAD PUSH2 0xC5 SWAP2 SWAP1 PUSH2 0x500 JUMP JUMPDEST PUSH1 0x40 MLOAD DUP1 SWAP2 SUB SWAP1 RETURN JUMPDEST PUSH2 0xE8 PUSH1 0x4 DUP1 CALLDATASIZE SUB DUP2 ADD SWAP1 PUSH2 0xE3 SWAP2 SWAP1 PUSH2 0x484 JUMP JUMPDEST PUSH2 0x2FD JUMP JUMPDEST PUSH1 0x40 MLOAD PUSH2 0xF5 SWAP2 SWAP1 PUSH2 0x500 JUMP JUMPDEST PUSH1 0x40 MLOAD DUP1 SWAP2 SUB SWAP1 RETURN JUMPDEST PUSH2 0x106 PUSH2 0x346 JUMP JUMPDEST PUSH1 0x40 MLOAD PUSH2 0x113 SWAP2 SWAP1 PUSH2 0x500 JUMP JUMPDEST PUSH1 0x40 MLOAD DUP1 SWAP2 SUB SWAP1 RETURN JUMPDEST PUSH2 0x136 PUSH1 0x4 DUP1 CALLDATASIZE SUB DUP2 ADD SWAP1 PUSH2 0x131 SWAP2 SWAP1 PUSH2 0x4B1 JUMP JUMPDEST PUSH2 0x34C JUMP JUMPDEST STOP JUMPDEST PUSH2 0x140 PUSH2 0x44E JUMP JUMPDEST PUSH1 0x40 MLOAD PUSH2 0x14D SWAP2 SWAP1 PUSH2 0x500 JUMP JUMPDEST PUSH1 0x40 MLOAD DUP1 SWAP2 SUB SWAP1 RETURN JUMPDEST PUSH2 0x15E PUSH2 0x454 JUMP JUMPDEST PUSH1 0x40 MLOAD PUSH2 0x16B SWAP2 SWAP1 PUSH2 0x500 JUMP JUMPDEST PUSH1 0x40 MLOAD DUP1 SWAP2 SUB SWAP1 RETURN JUMPDEST DUP1 PUSH1 0x0 SLOAD PUSH1 0x2 SLOAD PUSH1 0x1 SLOAD DUP4 PUSH2 0x189 SWAP2 SWAP1 PUSH2 0x5A2 JUMP JUMPDEST PUSH2 0x193 SWAP2 SWAP1 PUSH2 0x51B JUMP JUMPDEST GT ISZERO PUSH2 0x19E JUMPI PUSH1 0x0 DUP1 REVERT JUMPDEST PUSH1 0x0 PUSH1 0x1 SLOAD DUP4 PUSH2 0x1AE SWAP2 SWAP1 PUSH2 0x5A2 JUMP JUMPDEST SWAP1 POP DUP1 PUSH1 0x3 PUSH1 0x0 DUP7 PUSH20 0xFFFFFFFFFFFFFFFFFFFFFFFFFFFFFFFFFFFFFFFF AND PUSH20 0xFFFFFFFFFFFFFFFFFFFFFFFFFFFFFFFFFFFFFFFF AND DUP2 MSTORE PUSH1 0x20 ADD SWAP1 DUP2 MSTORE PUSH1 0x20 ADD PUSH1 0x0 KECCAK256 PUSH1 0x0 DUP3 DUP3 SLOAD PUSH2 0x1FF SWAP2 SWAP1 PUSH2 0x51B JUMP JUMPDEST SWAP3 POP POP DUP2 SWAP1 SSTORE POP PUSH1 0x64 PUSH1 0x3 PUSH1 0x0 DUP7 PUSH20 0xFFFFFFFFFFFFFFFFFFFFFFFFFFFFFFFFFFFFFFFF AND PUSH20 0xFFFFFFFFFFFFFFFFFFFFFFFFFFFFFFFFFFFFFFFF AND DUP2 MSTORE PUSH1 0x20 ADD SWAP1 DUP2 MSTORE PUSH1 0x20 ADD PUSH1 0x0 KECCAK256 SLOAD PUSH2 0x252 SWAP2 SWAP1 PUSH2 0x571 JUMP JUMPDEST PUSH1 0x4 PUSH1 0x0 DUP7 PUSH20 0xFFFFFFFFFFFFFFFFFFFFFFFFFFFFFFFFFFFFFFFF AND PUSH20 0xFFFFFFFFFFFFFFFFFFFFFFFFFFFFFFFFFFFFFFFF AND DUP2 MSTORE PUSH1 0x20 ADD SWAP1 DUP2 MSTORE PUSH1 0x20 ADD PUSH1 0x0 KECCAK256 DUP2 SWAP1 SSTORE POP DUP1 PUSH1 0x2 PUSH1 0x0 DUP3 DUP3 SLOAD PUSH2 0x2A7 SWAP2 SWAP1 PUSH2 0x51B JUMP JUMPDEST SWAP3 POP POP DUP2 SWAP1 SSTORE POP POP POP POP POP JUMP JUMPDEST PUSH1 0x0 PUSH1 0x4 PUSH1 0x0 DUP4 PUSH20 0xFFFFFFFFFFFFFFFFFFFFFFFFFFFFFFFFFFFFFFFF AND PUSH20 0xFFFFFFFFFFFFFFFFFFFFFFFFFFFFFFFFFFFFFFFF AND DUP2 MSTORE PUSH1 0x20 ADD SWAP1 DUP2 MSTORE PUSH1 0x20 ADD PUSH1 0x0 KECCAK256 SLOAD SWAP1 POP SWAP2 SWAP1 POP JUMP JUMPDEST PUSH1 0x0 PUSH1 0x3 PUSH1 0x0 DUP4 PUSH20 0xFFFFFFFFFFFFFFFFFFFFFFFFFFFFFFFFFFFFFFFF AND PUSH20 0xFFFFFFFFFFFFFFFFFFFFFFFFFFFFFFFFFFFFFFFF AND DUP2 MSTORE PUSH1 0x20 ADD SWAP1 DUP2 MSTORE PUSH1 0x20 ADD PUSH1 0x0 KECCAK256 SLOAD SWAP1 POP SWAP2 SWAP1 POP JUMP JUMPDEST PUSH1 0x1 SLOAD DUP2 JUMP JUMPDEST DUP1 PUSH1 0x3 PUSH1 0x0 DUP5 PUSH20 0xFFFFFFFFFFFFFFFFFFFFFFFFFFFFFFFFFFFFFFFF AND PUSH20 0xFFFFFFFFFFFFFFFFFFFFFFFFFFFFFFFFFFFFFFFF AND DUP2 MSTORE PUSH1 0x20 ADD SWAP1 DUP2 MSTORE PUSH1 0x20 ADD PUSH1 0x0 KECCAK256 PUSH1 0x0 DUP3 DUP3 SLOAD PUSH2 0x39B SWAP2 SWAP1 PUSH2 0x5FC JUMP JUMPDEST SWAP3 POP POP DUP2 SWAP1 SSTORE POP PUSH1 0x64 PUSH1 0x3 PUSH1 0x0 DUP5 PUSH20 0xFFFFFFFFFFFFFFFFFFFFFFFFFFFFFFFFFFFFFFFF AND PUSH20 0xFFFFFFFFFFFFFFFFFFFFFFFFFFFFFFFFFFFFFFFF AND DUP2 MSTORE PUSH1 0x20 ADD SWAP1 DUP2 MSTORE PUSH1 0x20 ADD PUSH1 0x0 KECCAK256 SLOAD PUSH2 0x3EE SWAP2 SWAP1 PUSH2 0x571 JUMP JUMPDEST PUSH1 0x4 PUSH1 0x0 DUP5 PUSH20 0xFFFFFFFFFFFFFFFFFFFFFFFFFFFFFFFFFFFFFFFF AND PUSH20 0xFFFFFFFFFFFFFFFFFFFFFFFFFFFFFFFFFFFFFFFF AND DUP2 MSTORE PUSH1 0x20 ADD SWAP1 DUP2 MSTORE PUSH1 0x20 ADD PUSH1 0x0 KECCAK256 DUP2 SWAP1 SSTORE POP DUP1 PUSH1 0x2 PUSH1 0x0 DUP3 DUP3 SLOAD PUSH2 0x443 SWAP2 SWAP1 PUSH2 0x5FC JUMP JUMPDEST SWAP3 POP POP DUP2 SWAP1 SSTORE POP POP POP JUMP JUMPDEST PUSH1 0x2 SLOAD DUP2 JUMP JUMPDEST PUSH1 0x0 SLOAD DUP2 JUMP JUMPDEST PUSH1 0x0 DUP2 CALLDATALOAD SWAP1 POP PUSH2 0x469 DUP2 PUSH2 0x6CF JUMP JUMPDEST SWAP3 SWAP2 POP POP JUMP JUMPDEST PUSH1 0x0 DUP2 CALLDATALOAD SWAP1 POP PUSH2 0x47E DUP2 PUSH2 0x6E6 JUMP JUMPDEST SWAP3 SWAP2 POP POP JUMP JUMPDEST PUSH1 0x0 PUSH1 0x20 DUP3 DUP5 SUB SLT ISZERO PUSH2 0x49A JUMPI PUSH2 0x499 PUSH2 0x6CA JUMP JUMPDEST JUMPDEST PUSH1 0x0 PUSH2 0x4A8 DUP5 DUP3 DUP6 ADD PUSH2 0x45A JUMP JUMPDEST SWAP2 POP POP SWAP3 SWAP2 POP POP JUMP JUMPDEST PUSH1 0x0 DUP1 PUSH1 0x40 DUP4 DUP6 SUB SLT ISZERO PUSH2 0x4C8 JUMPI PUSH2 0x4C7 PUSH2 0x6CA JUMP JUMPDEST JUMPDEST PUSH1 0x0 PUSH2 0x4D6 DUP6 DUP3 DUP7 ADD PUSH2 0x45A JUMP JUMPDEST SWAP3 POP POP PUSH1 0x20 PUSH2 0x4E7 DUP6 DUP3 DUP7 ADD PUSH2 0x46F JUMP JUMPDEST SWAP2 POP POP SWAP3 POP SWAP3 SWAP1 POP JUMP JUMPDEST PUSH2 0x4FA DUP2 PUSH2 0x662 JUMP JUMPDEST DUP3 MSTORE POP POP JUMP JUMPDEST PUSH1 0x0 PUSH1 0x20 DUP3 ADD SWAP1 POP PUSH2 0x515 PUSH1 0x0 DUP4 ADD DUP5 PUSH2 0x4F1 JUMP JUMPDEST SWAP3 SWAP2 POP POP JUMP JUMPDEST PUSH1 0x0 PUSH2 0x526 DUP3 PUSH2 0x662 JUMP JUMPDEST SWAP2 POP PUSH2 0x531 DUP4 PUSH2 0x662 JUMP JUMPDEST SWAP3 POP DUP3 PUSH32 0xFFFFFFFFFFFFFFFFFFFFFFFFFFFFFFFFFFFFFFFFFFFFFFFFFFFFFFFFFFFFFFFF SUB DUP3 GT ISZERO PUSH2 0x566 JUMPI PUSH2 0x565 PUSH2 0x66C JUMP JUMPDEST JUMPDEST DUP3 DUP3 ADD SWAP1 POP SWAP3 SWAP2 POP POP JUMP JUMPDEST PUSH1 0x0 PUSH2 0x57C DUP3 PUSH2 0x662 JUMP JUMPDEST SWAP2 POP PUSH2 0x587 DUP4 PUSH2 0x662 JUMP JUMPDEST SWAP3 POP DUP3 PUSH2 0x597 JUMPI PUSH2 0x596 PUSH2 0x69B JUMP JUMPDEST JUMPDEST DUP3 DUP3 DIV SWAP1 POP SWAP3 SWAP2 POP POP JUMP JUMPDEST PUSH1 0x0 PUSH2 0x5AD DUP3 PUSH2 0x662 JUMP JUMPDEST SWAP2 POP PUSH2 0x5B8 DUP4 PUSH2 0x662 JUMP JUMPDEST SWAP3 POP DUP2 PUSH32 0xFFFFFFFFFFFFFFFFFFFFFFFFFFFFFFFFFFFFFFFFFFFFFFFFFFFFFFFFFFFFFFFF DIV DUP4 GT DUP3 ISZERO ISZERO AND ISZERO PUSH2 0x5F1 JUMPI PUSH2 0x5F0 PUSH2 0x66C JUMP JUMPDEST JUMPDEST DUP3 DUP3 MUL SWAP1 POP SWAP3 SWAP2 POP POP JUMP JUMPDEST PUSH1 0x0 PUSH2 0x607 DUP3 PUSH2 0x662 JUMP JUMPDEST SWAP2 POP PUSH2 0x612 DUP4 PUSH2 0x662 JUMP JUMPDEST SWAP3 POP DUP3 DUP3 LT ISZERO PUSH2 0x625 JUMPI PUSH2 0x624 PUSH2 0x66C JUMP JUMPDEST JUMPDEST DUP3 DUP3 SUB SWAP1 POP SWAP3 SWAP2 POP POP JUMP JUMPDEST PUSH1 0x0 PUSH2 0x63B DUP3 PUSH2 0x642 JUMP JUMPDEST SWAP1 POP SWAP2 SWAP1 POP JUMP JUMPDEST PUSH1 0x0 PUSH20 0xFFFFFFFFFFFFFFFFFFFFFFFFFFFFFFFFFFFFFFFF DUP3 AND SWAP1 POP SWAP2 SWAP1 POP JUMP JUMPDEST PUSH1 0x0 DUP2 SWAP1 POP SWAP2 SWAP1 POP JUMP JUMPDEST PUSH32 0x4E487B7100000000000000000000000000000000000000000000000000000000 PUSH1 0x0 MSTORE PUSH1 0x11 PUSH1 0x4 MSTORE PUSH1 0x24 PUSH1 0x0 REVERT JUMPDEST PUSH32 0x4E487B7100000000000000000000000000000000000000000000000000000000 PUSH1 0x0 MSTORE PUSH1 0x12 PUSH1 0x4 MSTORE PUSH1 0x24 PUSH1 0x0 REVERT JUMPDEST PUSH1 0x0 DUP1 REVERT JUMPDEST PUSH2 0x6D8 DUP2 PUSH2 0x630 JUMP JUMPDEST DUP2 EQ PUSH2 0x6E3 JUMPI PUSH1 0x0 DUP1 REVERT JUMPDEST POP JUMP JUMPDEST PUSH2 0x6EF DUP2 PUSH2 0x662 JUMP JUMPDEST DUP2 EQ PUSH2 0x6FA JUMPI PUSH1 0x0 DUP1 REVERT JUMPDEST POP JUMP INVALID LOG2 PUSH5 0x6970667358 0x22 SLT KECCAK256 PUSH4 0x99D676DD 0x23 PUSH21 0xE3FD187A2424FADC7D6BE8850980733642DDAB65F5 DUP11 0xF9 0x26 PUSH1 0x64 PUSH20 0x6F6C634300080700330000000000000000000000 "
				},
				"gasEstimates": {
					"creation": {
						"codeDepositCost": "368600",
						"executionCost": "49623",
						"totalCost": "418223"
					},
					"external": {
						"buy_lelicoin(address,uint256)": "infinite",
						"equity_in_lelicoin(address)": "2886",
						"equity_in_usd(address)": "2864",
						"max_lelicoin()": "2495",
						"sell_lelicoin(address,uint256)": "infinite",
						"total_lelicoin_bought()": "2473",
						"usd_to_lelicoin()": "2429"
					}
				},
				"methodIdentifiers": {
					"buy_lelicoin(address,uint256)": "0ac9e401",
					"equity_in_lelicoin(address)": "2456fe23",
					"equity_in_usd(address)": "10c51c1b",
					"max_lelicoin()": "f4fa0a3d",
					"sell_lelicoin(address,uint256)": "d4f33784",
					"total_lelicoin_bought()": "ea6c04d5",
					"usd_to_lelicoin()": "3cf8944b"
				}
			},
			"storageLayout": {
				"storage": [
					{
						"astId": 4,
						"contract": "contracts/1_Storage.sol:Lelicoin_ico",
						"label": "max_lelicoin",
						"offset": 0,
						"slot": "0",
						"type": "t_uint256"
					},
					{
						"astId": 7,
						"contract": "contracts/1_Storage.sol:Lelicoin_ico",
						"label": "usd_to_lelicoin",
						"offset": 0,
						"slot": "1",
						"type": "t_uint256"
					},
					{
						"astId": 10,
						"contract": "contracts/1_Storage.sol:Lelicoin_ico",
						"label": "total_lelicoin_bought",
						"offset": 0,
						"slot": "2",
						"type": "t_uint256"
					},
					{
						"astId": 14,
						"contract": "contracts/1_Storage.sol:Lelicoin_ico",
						"label": "equity_lelicoin",
						"offset": 0,
						"slot": "3",
						"type": "t_mapping(t_address,t_uint256)"
					},
					{
						"astId": 18,
						"contract": "contracts/1_Storage.sol:Lelicoin_ico",
						"label": "equity_usd",
						"offset": 0,
						"slot": "4",
						"type": "t_mapping(t_address,t_uint256)"
					}
				],
				"types": {
					"t_address": {
						"encoding": "inplace",
						"label": "address",
						"numberOfBytes": "20"
					},
					"t_mapping(t_address,t_uint256)": {
						"encoding": "mapping",
						"key": "t_address",
						"label": "mapping(address => uint256)",
						"numberOfBytes": "32",
						"value": "t_uint256"
					},
					"t_uint256": {
						"encoding": "inplace",
						"label": "uint256",
						"numberOfBytes": "32"
					}
				}
			},
			"userdoc": {
				"kind": "user",
				"methods": {},
				"version": 1
			}
		}
	}
}